:100EE3000A20693A202564000A692025643A2025EE
:100EF300640A000A667265713A2025640A00076D68
:100F0300706C3A2025640A000A20616D703A20252E
:030F1300640A006D
:100EAB00022B0000022900000249FFFF0247FFFF4F
:100EBB00142D001F000F000700030001000000109D
:100ECB000018001C001E024B000002230001042529
:070EDB0000000000012200ED
:100F9100120FA392A71D120FA392A61D120FA392C7
:020FA100A51D8C
:0F0FA300AE05A806EF088003A2E713D8FB1322C0
:10102C00E4FFEFFD3395E0FCC3ED9432EC64809467
:06103C008050030F80EC60
:01104200228B
:10101000AC077D07120F9192A4D2A3D2A2C2A21D47
:0C102000120F9192A4D2A2C2A202102CC6
:060F16008B4D8A4E894F4D
:100F1C00E4F550F551AB4DAA4EA94F855182855041
:100F2C0083120C08FFFD3395E04D600D1210100577
:090F3C0051E55170E0055080DC24
:010F45002289
:100FF200C2A7C2A6D2A5C2A4C2A3D2A2C2A21210E2
:0E1002002CD2A2C2A2D2A7D2A2C2A202102C4D
:100FD300C2A3C2A7C2A6C2A5C2A4D2A2C2A2D2A6BB
:0F0FE300A20C92A5A20D92A4D2A2C2A202102C1F
:100FB200C2A7C2A6C2A5C2A4D2A2C2A2D2A7A20995
:100FC20092A6A20A92A5A20B92A4D2A2C2A2021037
:010FD2002CF2
:03000B00020F6D74
:100F6D00C0E0C0D0E5282401F528E43527F527E4B5
:100F7D003526F526E43525F525752B00752C03D082
:040F8D00D0D0E032AE
:03002300020B5C71
:0D0B5C00C0E0C0D075D000C000C006C007CA
:100B6900209803020BEF752B00752C00859922E55F
:100B790022642A6041E5226423603BAF22EF33956A
:100B8900E0FEC3EF9430EE648094804053D3EF9439
:100B990039EE648094805048EF24D0FFEE34FFFE94
:100BA900E52A25E02441F8A60608A607052AE52A2C
:100BB900702E0529802AE522B42A0B759941752BD7
:100BC90000752C01800EE522B42315759941752B0A
:100BD90000752C02752900752A00754B00754C00AB
:100BE900C298D299800E30990BC299E5226005F519
:040BF90099752200C8
:0B0BFD00D007D006D000D0D0D0E032EE
:100D3400E4F508F5097BFF7A0E79E3750D061208D0
:100D440062E4F54BF54CAE08AF097C007D0A120C49
:100D540035E54C25E02441F8E6FC08E6FD2FF509CD
:100D6400EE3CF5087BFF7A0E79EB854B0D854C0E36
:100D74008C0F8D10120862054CE54C7002054BC3B4
:100D84009403E54B6480948040BC7BFF7A0E79F633
:0E0D940085080D85090E120862E4F52BF52C7A
:010DA200222E
:100E5C00E4F508F509F54BF54CAE08AF097C007DBF
:100E6C000A120C35E54C25E02441F8E6FC08E62F87
:100E7C00F509EE3CF508054CE54C7002054B640396
:100E8C00454B70D57BFF7A0F790185080D85090ECE
:0E0E9C00120862850847850948E4F52BF52CFD
:010EAA002225
:100DA300854708854809E548F47003E547F460562C
:100DB300C3E50864809480401E7BFF7A0F790B851E
:100DC300080D85090E120862C287850990E5091589
:100DD3000970DD150880D9D3E5099548E547648096
:100DE300F8E508648098501E7BFF7A0F790B85081D
:100DF3000D85090E120862C2878509900509E50968
:060E030070D5050880D146
:010E090022C6
:100E0A00759852758920758869758DF3D28ED2AC22
:100E1A00D2AFD287E4F590E589540F4420F589755D
:100E2A008C9C858C8AD2A9D28CD2AFE52C640145E0
:100E3A002B7005120D3480F3E52C6402452B7005E6
:100E4A00120E5C80E6E52C6403452B70DE120DA3BE
:020E5A0080D93D
:03000000020CA847
:0C0CA800787FE4F6D8FD758151020CEF56
:100C0800BB010CE58229F582E5833AF583E02250A1
:100C180006E92582F8E622BBFE06E92582F8E222EB
:0D0C2800E58229F582E5833AF583E4932205
:100C3500EF8DF0A4A8F0CF8CF0A428CE8DF0A42ED3
:020C4500FE228D
:10080000E519240DF8E6051922780A300702780D5B
:10081000E475F001120C72020C472000EB7F2ED21F
:10082000008018EF540F2490D43440D4FF30040BD0
:10083000EF24BFB41A0050032461FFE51A600215CB
:100840001A051DE51D7002051C30070D780AE475B8
:10085000F001120C72EF020C60020F467403D20713
:100860008003E4C207F5198B0A8A0B890CE4F51A98
:10087000F51CF51DE51A60077F2012083B80F57511
:100880001BFFC201C200C202C203C205C206C208E7
:10089000120809FF700D3007057F0012084CAF1DCC
:1008A000AE1C22B4255FC2D5C204120809FF24D0B1
:1008B000B40A00501A75F00A781A30D50508B6FF48
:1008C0000106C6A426F620D5047002D20380D924DE
:1008D000CFB41A00EF5004C2E5D204020A4CD20190
:1008E00080C6D20080C0D20280BCD2D580BAD205E8
:1008F00080B47F2012083B2002077401B51A004023
:10090000F1120800FF12083B020874D208D20680D8
:1009100095120800FB120800FA120800F94A4B7001
:1009200006791D7A0B7BFF20022EE51A602A7E00D5
:100930008E82758300120C0860060EEE651B70F047
:10094000C2D5EBC0E0EAC0E0E9C0E0EE120A93D005
:10095000E0F9D0E0FAD0E0FB120C47FF60AAEBC050
:10096000E0EAC0E0E9C0E012083BD0E02401F9D0A1
:10097000E03400FAD0E0FBE51B0460DCD51BD98035
:10098000877BFF7A0A798FD202809C791080027966
:1009900008C206C2088008D2D5790A8004790AC242
:1009A000D5E51B047002F51BE4FAFDFEFF120800FA
:1009B000FC7B08200113120800FD7B1030000A1296
:1009C0000800FE120800FF7B20EC3382D592D55040
:1009D00013C3E43000069FFFE49EFEE42001039D64
:1009E000FDE49CFCE4CBF8C201EC700CCFCECDCC86
:1009F000E824F8F870F38017C3EF33FFEE33FEED11
:100A000033FDEC33FCEB33FB994002FB0FD8E9EBF1
:100A1000300105F8D0E0C448B201C0E00AEC4D4E08
:100A20004F78207B0070C2EAB51B0040BCC0E012CA
:100A30000A95D0F0D0E0200104C4C0E0C4B201C0E7
:100A4000F0120824D0F0D5F0EB020874120C8209E1
:100A50001153098B5808E24C08DE42098F4F099761
:0F0A60004409974908F743099D550981460981C3
:100A6F00450981470B3D5008E62D08EA2E090D2B4D
:100A7F0008EE23090B200B262A08A64800000905BB
:100A8F003F3F3F00790AA2D5200314300509B91062
:100A9F00020404B9080104A2D52006025001042063
:100AAF0002689202B51A005034C0E07F203003195B
:100ABF007F30A20272067205500F120AECC202C2F8
:100ACF0006C205C2087F30800F300503E9C0E0126F
:100ADF00083B300503D0E0F9D0E0B51ACC3005174C
:100AEF007F30B9100C12083B7F583004077F788095
:100AFF0003B9080312083B3002057F2D02083B7F24
:100B0F00202008F87F2B2006F322920280CF286E38
:100B1F00756C6C2900D2011208003001F8C20178FF
:100B2F001A30D50108F60208A62D5043495812086D
:100B3F00002403B405004001E4900B389312082CF5
:0D0B4F00743A12082CD203751A0402098BA7
:100CB400020E0AE493A3F8E493A34003F68001F23E
:100CC40008DFF48029E493A3F85407240CC8C33341
:100CD400C4540F4420C8834004F456800146F6DF10
:100CE400E4800B0102040810204080900EABE47EE7
:100CF400019360BCA3FF543F30E509541FFEE49305
:100D0400A360010ECF54C025E060A840B8E493A3CB
:100D1400FAE493A3F8E493A3C8C582C8CAC583CAF6
:100D2400F0A3C8C582C8CAC583CADFE9DEE780BEAE
:010EE200000F
:100C4700BB010689828A83E0225002E722BBFE02AB
:090C5700E32289828A83E49322DE
:100C6000BB010689828A83F0225002F722BBFE0173
:020C7000F3226D
:100C7200FAE6FB0808E6F925F0F618E6CA3AF62283
:100C8200D083D082F8E4937012740193700DA3A301
:100C920093F8740193F5828883E473740293686015
:060CA200EFA3A3A380DF15
:100F4600EFB40A07740D120F51740A309811A8995C
:100F5600B8130CC2983098FDA899C298B811F6300B
:070F660099FDC299F59922E3
:00000001FF
