:0A0F0B006672657100616D706C0084
:100E080002270000022500001429001F000F000718
:100E180000030001000000100018001C001E025B07
:090E280000000223000101220078
:100E5900120E6B92A71D120E6B92A61D120E6B92AB
:020E6900A51DC5
:0F0E6B00AE05A806EF088003A2E713D8FB1322F9
:100EF400E4FFEFFD3395E0FCC3ED9432EC648094A1
:060F04008050030F80EC99
:010F0A0022C4
:100ED800AC077D07120E5992A4D2A3D2A2C2A21DBA
:0C0EE800120E5992A4D2A2C2A2020EF473
:060DAC008B088A09890A88
:100DB200E4F50BF50CAB08AA09A90A850C82850B90
:100DC20083120C08FFFD3395E04D600D120ED8051D
:090DD2000CE50C70E0050B80DC5F
:010DDB0022F5
:100EBA00C2A7C2A6D2A5C2A4C2A3D2A2C2A2120E1D
:0E0ECA00F4D2A2C2A2D2A7D2A2C2A2020EF4F9
:100E9B00C2A3C2A7C2A6C2A5C2A4D2A2C2A2D2A6F4
:0F0EAB00A20092A5A20192A4D2A2C2A2020EF4AA
:100E7A00C2A7C2A6C2A5C2A4D2A2C2A2D2A7A200D7
:100E8A0092A6A20192A5A20292A4D2A2C2A2020E84
:010E9A00F463
:03002300020B5C71
:0D0B5C00C0E0C0D075D000C000C006C007CA
:100B6900209803020BEF752700752800859922E567
:100B790022642A6041E5226423603BAF22EF33956A
:100B8900E0FEC3EF9430EE648094804053D3EF9439
:100B990039EE648094805048EF24D0FFEE34FFFE94
:100BA900E52625E02451F8A60608A6070526E52628
:100BB900702E0525802AE522B42A0B7599517527CF
:100BC90000752801800EE522B42315759951752702
:100BD90000752802752500752600755B00755C0097
:100BE900C298D299800E30990BC299E5226005F519
:040BF90099752200C8
:0B0BFD00D007D006D000D0D0D0E032EE
:100D2200120EBAD200C201120E9BD200D201D2021E
:100D3200120E7A7BFF7A0F790B120DACE4F55BF59C
:100D42005CAF5CEF25E02451F8E6FC08E6FDEF25F8
:100D5200E02447F8A60408A605055CE55C700205D8
:100D62005B640A455B70DA759001E4F527F5282289
:100D72007BFF7A0F7910120862E4F55BF55CAF5CD9
:100D8200EF25E02451F8E6FC08E6FDEF25E0243DDE
:100D9200F8A60408A605055CE55C7002055B640A1A
:0A0DA200455B70DAE4F527F528221E
:100DDC00759852758920758869758DF3D28ED2AC51
:100DEC00D2AFE528640145277005120D2280F3E58A
:0C0DFC00286402452770EB120D7280E69F
:03000000020C9659
:0C0C9600787FE4F6D8FD75815C020CDD6F
:100C0800BB010CE58229F582E5833AF583E02250A1
:100C180006E92582F8E622BBFE06E92582F8E222EB
:0D0C2800E58229F582E5833AF583E4932205
:10080000E517240BF8E60517227808300702780B65
:10081000E475F001120C60020C352000EB7F2ED243
:10082000008018EF540F2490D43440D4FF30040BD0
:10083000EF24BFB41A0050032461FFE518600215CD
:1008400018051BE51B7002051A30070D7808E475C2
:10085000F001120C60EF020C4E020E327403D2074C
:100860008003E4C207F5178B088A09890AE4F518A2
:10087000F51AF51BE51860077F2012083B80F57517
:1008800019FFC201C200C202C203C205C206C208E9
:10089000120809FF700D3007057F0012084CAF1BCE
:1008A000AE1A22B4255FC2D5C204120809FF24D0B3
:1008B000B40A00501A75F00A781830D50508B6FF4A
:1008C0000106C6A426F620D5047002D20380D924DE
:1008D000CFB41A00EF5004C2E5D204020A4CD20190
:1008E00080C6D20080C0D20280BCD2D580BAD205E8
:1008F00080B47F2012083B2002077401B518004025
:10090000F1120800FF12083B020874D208D20680D8
:1009100095120800FB120800FA120800F94A4B7001
:1009200006791D7A0B7BFF20022EE518602A7E00D7
:100930008E82758300120C0860060EEE651970F049
:10094000C2D5EBC0E0EAC0E0E9C0E0EE120A93D005
:10095000E0F9D0E0FAD0E0FB120C35FF60AAEBC062
:10096000E0EAC0E0E9C0E012083BD0E02401F9D0A1
:10097000E03400FAD0E0FBE5190460DCD519D98039
:10098000877BFF7A0A798FD202809C791080027966
:1009900008C206C2088008D2D5790A8004790AC242
:1009A000D5E519047002F519E4FAFDFEFF120800FE
:1009B000FC7B08200113120800FD7B1030000A1296
:1009C0000800FE120800FF7B20EC3382D592D55040
:1009D00013C3E43000069FFFE49EFEE42001039D64
:1009E000FDE49CFCE4CBF8C201EC700CCFCECDCC86
:1009F000E824F8F870F38017C3EF33FFEE33FEED11
:100A000033FDEC33FCEB33FB994002FB0FD8E9EBF1
:100A1000300105F8D0E0C448B201C0E00AEC4D4E08
:100A20004F78207B0070C2EAB5190040BCC0E012CC
:100A30000A95D0F0D0E0200104C4C0E0C4B201C0E7
:100A4000F0120824D0F0D5F0EB020874120C7009F3
:100A50001153098B5808E24C08DE42098F4F099761
:0F0A60004409974908F743099D550981460981C3
:100A6F00450981470B3D5008E62D08EA2E090D2B4D
:100A7F0008EE23090B200B262A08A64800000905BB
:100A8F003F3F3F00790AA2D5200314300509B91062
:100A9F00020404B9080104A2D52006025001042063
:100AAF0002689202B518005034C0E07F203003195D
:100ABF007F30A20272067205500F120AECC202C2F8
:100ACF0006C205C2087F30800F300503E9C0E0126F
:100ADF00083B300503D0E0F9D0E0B518CC3005174E
:100AEF007F30B9100C12083B7F583004077F788095
:100AFF0003B9080312083B3002057F2D02083B7F24
:100B0F00202008F87F2B2006F322920280CF286E38
:100B1F00756C6C2900D2011208003001F8C20178FF
:100B2F001830D50108F60208A62D5043495812086F
:100B3F00002403B405004001E4900B389312082CF5
:0D0B4F00743A12082CD20375180402098BA9
:100CA200020DDCE493A3F8E493A34003F68001F27F
:100CB20008DFF48029E493A3F85407240CC8C33353
:100CC200C4540F4420C8834004F456800146F6DF22
:100CD200E4800B0102040810204080900E08E47E9C
:100CE200019360BCA3FF543F30E509541FFEE49317
:100CF200A360010ECF54C025E060A840B8E493A3DE
:100D0200FAE493A3F8E493A3C8C582C8CAC583CA08
:100D1200F0A3C8C582C8CAC583CADFE9DEE780BEC0
:010E310000C0
:100C3500BB010689828A83E0225002E722BBFE02BD
:090C4500E32289828A83E49322F0
:100C4E00BB010689828A83F0225002F722BBFE0185
:020C5E00F3227F
:100C6000FAE6FB0808E6F925F0F618E6CA3AF62295
:100C7000D083D082F8E4937012740193700DA3A313
:100C800093F8740193F5828883E473740293686027
:060C9000EFA3A3A380DF27
:100E3200EFB40A07740D120E3D740A309811A89986
:100E4200B8130CC2983098FDA899C298B811F63020
:070E520099FDC299F59922F8
:00000001FF
