:03106B00256400F9
:100FBC00022F000002250000022B00000243FFFF5D
:100FCC000241FFFF02450000022D00000427000033
:050FDC000000012200ED
:100F7000D2A2C2A21D120F8792A71D120F8792A69E
:070F80001D120F8792A51D51
:0F0F8700AE05A806EF088003A2E713D8FB1322DC
:10103D00E4FFEFFD3395E0FCC3ED9432EC64809456
:06104D008050030F80EC4F
:01105300227A
:10105400AC077D07120F7592A4D2A3120F7092A44D
:07106400D2A2C2A202103D5E
:090EE9001210247B007A0079311B
:060EF2008B088A09890A41
:100EF800E4F50BF50CAB08AA09A90A850C82850B49
:100F080083120C14FFFD3395E04D600D121054054B
:090F18000CE50C70E0050B80DC17
:010F210022AD
:10100600C2A7C2A6D2A5C2A4C2A3D2A2C2A21210CD
:0E1016003DD2A2C2A2D2A7D2A2C2A202103D17
:10102400AC07C2A3D2A77D06120F7B92A4120F7045
:0910340092A4D2A2C2A202103D56
:070F9600121006D200C20197
:100F9D00C2A3C2A7C2A6C2A5C2A4D2A2C2A2D2A6F1
:0F0FAD00A20092A5A20192A4D2A2C2A202103D5C
:060F2200D200D201D20250
:100F2800C2A7C2A6C2A5C2A4D2A2C2A2D2A7A20028
:100F380092A6A20192A5A20292A4D2A2C2A20210D3
:010F48003D6B
:03000B00020FE2FF
:100FE200C0E0C0D0E52A2401F52AE43529F529E438
:100FF2003528F528E43527F527752F00753003D0FD
:04100200D0D0E03238
:03002300020B5C71
:0D0B5C00C0E0C0D075D000C000C006C007CA
:100B6900209803020BFB752F007530007525007561
:100B79002600859922E522642A6041E522642360E2
:100B89003BAF22EF3395E0FEC3EF9430EE648094DF
:100B9900804059D3EF9439EE64809480504EEF240D
:100BA900D0FFEE34FFFEE52C25E0243BF8A606082D
:100BB900A607052CE52C7034052B8030E522B42AD4
:100BC9000B75993B752F00753001800EE522B42312
:100BD9001B75993B752F0075300275250075260127
:100BE900752B00752C00754500754600C298D29981
:100BF900800E30990BC299E5226005F5997522009E
:0B0C0900D007D006D000D0D0D0E032E1
:100E3C00E4FFFEF545F5467C007D0A120C41E546C3
:100E4C0025E0243BF8E6FC08E62FFFEE3CFE0546C9
:100E5C00E546700205456403454570DB8E438F44BF
:100E6C00750BFF750C10750D6B8E0E8F0F7B007A4A
:100E7C0000793112085C120F96120F22E4FF120E49
:0A0E8C00E9E4F52FF530F525F52611
:010E96002239
:100DDB00E4FFFEF545F5467C007D0A120C41E54625
:100DEB0025E0243BF8E6FC08E62FFFEE3CFE05462B
:100DFB00E546700205456403454570DB8E418F4225
:100E0B008E238F24750BFF750C10750D6B85410EA2
:100E1B0085420F7B007A00793112085C120F961213
:100E2B000F227F40120EE9E4F52FF530F525F5265C
:010E3B002294
:100CB400E52645256003020D44E542F47003E54151
:100CC400F46077E544F47003E543F4606DC3E52311
:100CD400648094804015E52E452D700FC2878524CD
:100CE40090E5241524703715238033D3E5249542E9
:100CF400E5416480F8E5236480985022E524B4FF3C
:100D04000AE523B4FF05E4F523F524752D00752EBB
:100D140001C2878524900524E52470020523D3E5C8
:100D2400249542E5416480F8E523648098400B856E
:100D34004123854224E4F52DF52EE4F52FF53022E8
:0B0D440074FFF541F542F543F5442231
:100E9700759852758920758869758DF3D28ED2AC95
:100EA700D2AFD287E4F590E589540F4420F58975D0
:100EB7008C9C858C8AD2A9D28CD2AFE5306401454F
:100EC7002F7005120E3C80F3E5306402452F700544
:100ED700120DDB80E6E5306403452F70DE120CB49B
:020EE70080D9B0
:03000000020D4F9F
:0C0D4F00787FE4F6D8FD758146020D9611
:100C1400BB010CE58229F582E5833AF583E0225095
:100C240006E92582F8E622BBFE06E92582F8E222DF
:0D0C3400E58229F582E5833AF583E49322F9
:100C4100EF8DF0A4A8F0CF8CF0A428CE8DF0A42EC7
:020C5100FE2281
:10080000E517240BF8E60517227808300702780B65
:10081000E475F001120C7E020C532000EB7F2ED207
:10082000008018EF540F2490D43440D4FF30040BD0
:10083000EF24BFB41A0050032461FFE518600215CD
:1008400018051BE51B7002051A30070D7808E475C2
:10085000F001120C7EEF020C6C020F497403D207F8
:100860008003E4C207F5178B088A09890AE4F518A2
:10087000F51AF51BE51860077F2012083B80F57517
:1008800019FFC201C200C202C203C205C206C208E9
:10089000120809FF700D3007057F0012084CAF1BCE
:1008A000AE1A22B4255FC2D5C204120809FF24D0B3
:1008B000B40A00501A75F00A781830D50508B6FF4A
:1008C0000106C6A426F620D5047002D20380D924DE
:1008D000CFB41A00EF5004C2E5D204020A4CD20190
:1008E00080C6D20080C0D20280BCD2D580BAD205E8
:1008F00080B47F2012083B2002077401B518004025
:10090000F1120800FF12083B020874D208D20680D8
:1009100095120800FB120800FA120800F94A4B7001
:1009200006791D7A0B7BFF20022EE518602A7E00D7
:100930008E82758300120C1460060EEE651970F03D
:10094000C2D5EBC0E0EAC0E0E9C0E0EE120A93D005
:10095000E0F9D0E0FAD0E0FB120C53FF60AAEBC044
:10096000E0EAC0E0E9C0E012083BD0E02401F9D0A1
:10097000E03400FAD0E0FBE5190460DCD519D98039
:10098000877BFF7A0A798FD202809C791080027966
:1009900008C206C2088008D2D5790A8004790AC242
:1009A000D5E519047002F519E4FAFDFEFF120800FE
:1009B000FC7B08200113120800FD7B1030000A1296
:1009C0000800FE120800FF7B20EC3382D592D55040
:1009D00013C3E43000069FFFE49EFEE42001039D64
:1009E000FDE49CFCE4CBF8C201EC700CCFCECDCC86
:1009F000E824F8F870F38017C3EF33FFEE33FEED11
:100A000033FDEC33FCEB33FB994002FB0FD8E9EBF1
:100A1000300105F8D0E0C448B201C0E00AEC4D4E08
:100A20004F78207B0070C2EAB5190040BCC0E012CC
:100A30000A95D0F0D0E0200104C4C0E0C4B201C0E7
:100A4000F0120824D0F0D5F0EB020874120C8E09D5
:100A50001153098B5808E24C08DE42098F4F099761
:0F0A60004409974908F743099D550981460981C3
:100A6F00450981470B3D5008E62D08EA2E090D2B4D
:100A7F0008EE23090B200B262A08A64800000905BB
:100A8F003F3F3F00790AA2D5200314300509B91062
:100A9F00020404B9080104A2D52006025001042063
:100AAF0002689202B518005034C0E07F203003195D
:100ABF007F30A20272067205500F120AECC202C2F8
:100ACF0006C205C2087F30800F300503E9C0E0126F
:100ADF00083B300503D0E0F9D0E0B518CC3005174E
:100AEF007F30B9100C12083B7F583004077F788095
:100AFF0003B9080312083B3002057F2D02083B7F24
:100B0F00202008F87F2B2006F322920280CF286E38
:100B1F00756C6C2900D2011208003001F8C20178FF
:100B2F001830D50108F60208A62D5043495812086F
:100B3F00002403B405004001E4900B389312082CF5
:0D0B4F00743A12082CD20375180402098BA9
:100D5B00020E97E493A3F8E493A34003F68001F209
:100D6B0008DFF48029E493A3F85407240CC8C33399
:100D7B00C4540F4420C8834004F456800146F6DF68
:100D8B00E4800B0102040810204080900FBCE47E2D
:100D9B00019360BCA3FF543F30E509541FFEE4935D
:100DAB00A360010ECF54C025E060A840B8E493A324
:100DBB00FAE493A3F8E493A3C8C582C8CAC583CA4F
:100DCB00F0A3C8C582C8CAC583CADFE9DEE780BE07
:010FE100000F
:100C5300BB010689828A83E0225002E722BBFE029F
:090C6300E32289828A83E49322D2
:100C6C00BB010689828A83F0225002F722BBFE0167
:020C7C00F32261
:100C7E00FAE6FB0808E6F925F0F618E6CA3AF62277
:100C8E00D083D082F8E4937012740193700DA3A3F5
:100C9E0093F8740193F5828883E473740293686009
:060CAE00EFA3A3A380DF09
:100F4900EFB40A07740D120F54740A309811A89956
:100F5900B8130CC2983098FDA899C298B811F63008
:070F690099FDC299F59922E0
:00000001FF
