:0A0DC3006672657100616D706C00CE
:100D540002270000022500001429001F000F0007CD
:100D640000030001000000100018001C001E025BBC
:090D74000000022300010122002D
:03002300020B5C71
:0D0B5C00C0E0C0D075D000C000C006C007CA
:100B6900209803020BEF752700752800859922E567
:100B790022642A6041E5226423603BAF22EF33956A
:100B8900E0FEC3EF9430EE648094804053D3EF9439
:100B990039EE648094805048EF24D0FFEE34FFFE94
:100BA900E52625E0243DF8A60608A6070526E5263C
:100BB900702E0525802AE522B42A0B75993D7527E3
:100BC90000752801800EE522B4231575993D752716
:100BD90000752802752500752600755B00755C0097
:100BE900C298D299800E30990BC299E5226005F519
:040BF90099752200C8
:0B0BFD00D007D006D000D0D0D0E032EE
:0F0DA5007BFF7A0D79C3120862E4F527F5282247
:0F0DB4007BFF7A0D79C8120862E4F527F5282233
:100D2200750800750904759852758920758869756A
:100D32008DF3D28ED2ACD2AFE5286401452770057F
:100D4200120DA580F3E5286402452770EB120DB45D
:020D520080E639
:03000000020C9659
:0C0C9600787FE4F6D8FD75815C020CDD6F
:10080000E51B240FF8E6051B22780C300702780F51
:10081000E475F001120C60020C082000EB7F2ED270
:10082000008018EF540F2490D43440D4FF30040BD0
:10083000EF24BFB41A0050032461FFE51C600215C9
:100840001C051FE51F7002051E30070D780CE475AE
:10085000F001120C60EF020C4E020D7E7403D20701
:100860008003E4C207F51B8B0C8A0D890EE4F51C8E
:10087000F51EF51FE51C60077F2012083B80F5750B
:100880001DFFC201C200C202C203C205C206C208E5
:10089000120809FF700D3007057F0012084CAF1FCA
:1008A000AE1E22B4255FC2D5C204120809FF24D0AF
:1008B000B40A00501A75F00A781C30D50508B6FF46
:1008C0000106C6A426F620D5047002D20380D924DE
:1008D000CFB41A00EF5004C2E5D204020A4CD20190
:1008E00080C6D20080C0D20280BCD2D580BAD205E8
:1008F00080B47F2012083B2002077401B51C004021
:10090000F1120800FF12083B020874D208D20680D8
:1009100095120800FB120800FA120800F94A4B7001
:1009200006791D7A0B7BFF20022EE51C602A7E00D3
:100930008E82758300120C2160060EEE651D70F02C
:10094000C2D5EBC0E0EAC0E0E9C0E0EE120A93D005
:10095000E0F9D0E0FAD0E0FB120C08FF60AAEBC08F
:10096000E0EAC0E0E9C0E012083BD0E02401F9D0A1
:10097000E03400FAD0E0FBE51D0460DCD51DD98031
:10098000877BFF7A0A798FD202809C791080027966
:1009900008C206C2088008D2D5790A8004790AC242
:1009A000D5E51D047002F51DE4FAFDFEFF120800F6
:1009B000FC7B08200113120800FD7B1030000A1296
:1009C0000800FE120800FF7B20EC3382D592D55040
:1009D00013C3E43000069FFFE49EFEE42001039D64
:1009E000FDE49CFCE4CBF8C201EC700CCFCECDCC86
:1009F000E824F8F870F38017C3EF33FFEE33FEED11
:100A000033FDEC33FCEB33FB994002FB0FD8E9EBF1
:100A1000300105F8D0E0C448B201C0E00AEC4D4E08
:100A20004F78207B0070C2EAB51D0040BCC0E012C8
:100A30000A95D0F0D0E0200104C4C0E0C4B201C0E7
:100A4000F0120824D0F0D5F0EB020874120C7009F3
:100A50001153098B5808E24C08DE42098F4F099761
:0F0A60004409974908F743099D550981460981C3
:100A6F00450981470B3D5008E62D08EA2E090D2B4D
:100A7F0008EE23090B200B262A08A64800000905BB
:100A8F003F3F3F00790AA2D5200314300509B91062
:100A9F00020404B9080104A2D52006025001042063
:100AAF0002689202B51C005034C0E07F2030031959
:100ABF007F30A20272067205500F120AECC202C2F8
:100ACF0006C205C2087F30800F300503E9C0E0126F
:100ADF00083B300503D0E0F9D0E0B51CCC3005174A
:100AEF007F30B9100C12083B7F583004077F788095
:100AFF0003B9080312083B3002057F2D02083B7F24
:100B0F00202008F87F2B2006F322920280CF286E38
:100B1F00756C6C2900D2011208003001F8C20178FF
:100B2F001C30D50108F60208A62D5043495812086B
:100B3F00002403B405004001E4900B389312082CF5
:0D0B4F00743A12082CD203751C0402098BA5
:100CA200020D22E493A3F8E493A34003F68001F239
:100CB20008DFF48029E493A3F85407240CC8C33353
:100CC200C4540F4420C8834004F456800146F6DF22
:100CD200E4800B0102040810204080900D54E47E51
:100CE200019360BCA3FF543F30E509541FFEE49317
:100CF200A360010ECF54C025E060A840B8E493A3DE
:100D0200FAE493A3F8E493A3C8C582C8CAC583CA08
:100D1200F0A3C8C582C8CAC583CADFE9DEE780BEC0
:010D7D000075
:100C0800BB010689828A83E0225002E722BBFE02EA
:090C1800E32289828A83E493221D
:100C2100BB010CE58229F582E5833AF583E0225088
:100C310006E92582F8E622BBFE06E92582F8E222D2
:0D0C4100E58229F582E5833AF583E49322EC
:100C4E00BB010689828A83F0225002F722BBFE0185
:020C5E00F3227F
:100C6000FAE6FB0808E6F925F0F618E6CA3AF62295
:100C7000D083D082F8E4937012740193700DA3A313
:100C800093F8740193F5828883E473740293686027
:060C9000EFA3A3A380DF27
:100D7E00EFB40A07740D120D89740A309811A899F0
:100D8E00B8130CC2983098FDA899C298B811F630D5
:070D9E0099FDC299F59922AD
:00000001FF
